{
  "contractName": "VaultCoin",
  "abi": [
    {
      "inputs": [],
      "payable": false,
      "stateMutability": "nonpayable",
      "type": "constructor"
    },
    {
      "anonymous": false,
      "inputs": [
        {
          "indexed": true,
          "internalType": "address",
          "name": "tokenOwner",
          "type": "address"
        },
        {
          "indexed": true,
          "internalType": "address",
          "name": "spender",
          "type": "address"
        },
        {
          "indexed": false,
          "internalType": "uint256",
          "name": "tokens",
          "type": "uint256"
        }
      ],
      "name": "Approval",
      "type": "event"
    },
    {
      "anonymous": false,
      "inputs": [
        {
          "indexed": true,
          "internalType": "address",
          "name": "_from",
          "type": "address"
        },
        {
          "indexed": true,
          "internalType": "address",
          "name": "_to",
          "type": "address"
        }
      ],
      "name": "OwnershipTransferred",
      "type": "event"
    },
    {
      "anonymous": false,
      "inputs": [
        {
          "indexed": true,
          "internalType": "address",
          "name": "from",
          "type": "address"
        },
        {
          "indexed": true,
          "internalType": "address",
          "name": "to",
          "type": "address"
        },
        {
          "indexed": false,
          "internalType": "uint256",
          "name": "tokens",
          "type": "uint256"
        }
      ],
      "name": "Transfer",
      "type": "event"
    },
    {
      "payable": true,
      "stateMutability": "payable",
      "type": "fallback"
    },
    {
      "constant": true,
      "inputs": [],
      "name": "_totalSupply",
      "outputs": [
        {
          "internalType": "uint256",
          "name": "",
          "type": "uint256"
        }
      ],
      "payable": false,
      "stateMutability": "view",
      "type": "function"
    },
    {
      "constant": false,
      "inputs": [],
      "name": "acceptOwnership",
      "outputs": [],
      "payable": false,
      "stateMutability": "nonpayable",
      "type": "function"
    },
    {
      "constant": true,
      "inputs": [],
      "name": "decimals",
      "outputs": [
        {
          "internalType": "uint8",
          "name": "",
          "type": "uint8"
        }
      ],
      "payable": false,
      "stateMutability": "view",
      "type": "function"
    },
    {
      "constant": true,
      "inputs": [],
      "name": "name",
      "outputs": [
        {
          "internalType": "string",
          "name": "",
          "type": "string"
        }
      ],
      "payable": false,
      "stateMutability": "view",
      "type": "function"
    },
    {
      "constant": true,
      "inputs": [],
      "name": "newOwner",
      "outputs": [
        {
          "internalType": "address",
          "name": "",
          "type": "address"
        }
      ],
      "payable": false,
      "stateMutability": "view",
      "type": "function"
    },
    {
      "constant": true,
      "inputs": [],
      "name": "owner",
      "outputs": [
        {
          "internalType": "address",
          "name": "",
          "type": "address"
        }
      ],
      "payable": false,
      "stateMutability": "view",
      "type": "function"
    },
    {
      "constant": true,
      "inputs": [
        {
          "internalType": "uint256",
          "name": "a",
          "type": "uint256"
        },
        {
          "internalType": "uint256",
          "name": "b",
          "type": "uint256"
        }
      ],
      "name": "safeAdd",
      "outputs": [
        {
          "internalType": "uint256",
          "name": "c",
          "type": "uint256"
        }
      ],
      "payable": false,
      "stateMutability": "pure",
      "type": "function"
    },
    {
      "constant": true,
      "inputs": [
        {
          "internalType": "uint256",
          "name": "a",
          "type": "uint256"
        },
        {
          "internalType": "uint256",
          "name": "b",
          "type": "uint256"
        }
      ],
      "name": "safeDiv",
      "outputs": [
        {
          "internalType": "uint256",
          "name": "c",
          "type": "uint256"
        }
      ],
      "payable": false,
      "stateMutability": "pure",
      "type": "function"
    },
    {
      "constant": true,
      "inputs": [
        {
          "internalType": "uint256",
          "name": "a",
          "type": "uint256"
        },
        {
          "internalType": "uint256",
          "name": "b",
          "type": "uint256"
        }
      ],
      "name": "safeMul",
      "outputs": [
        {
          "internalType": "uint256",
          "name": "c",
          "type": "uint256"
        }
      ],
      "payable": false,
      "stateMutability": "pure",
      "type": "function"
    },
    {
      "constant": true,
      "inputs": [
        {
          "internalType": "uint256",
          "name": "a",
          "type": "uint256"
        },
        {
          "internalType": "uint256",
          "name": "b",
          "type": "uint256"
        }
      ],
      "name": "safeSub",
      "outputs": [
        {
          "internalType": "uint256",
          "name": "c",
          "type": "uint256"
        }
      ],
      "payable": false,
      "stateMutability": "pure",
      "type": "function"
    },
    {
      "constant": true,
      "inputs": [],
      "name": "symbol",
      "outputs": [
        {
          "internalType": "string",
          "name": "",
          "type": "string"
        }
      ],
      "payable": false,
      "stateMutability": "view",
      "type": "function"
    },
    {
      "constant": false,
      "inputs": [
        {
          "internalType": "address",
          "name": "_newOwner",
          "type": "address"
        }
      ],
      "name": "transferOwnership",
      "outputs": [],
      "payable": false,
      "stateMutability": "nonpayable",
      "type": "function"
    },
    {
      "constant": true,
      "inputs": [],
      "name": "totalSupply",
      "outputs": [
        {
          "internalType": "uint256",
          "name": "",
          "type": "uint256"
        }
      ],
      "payable": false,
      "stateMutability": "view",
      "type": "function"
    },
    {
      "constant": true,
      "inputs": [
        {
          "internalType": "address",
          "name": "tokenOwner",
          "type": "address"
        }
      ],
      "name": "balanceOf",
      "outputs": [
        {
          "internalType": "uint256",
          "name": "balance",
          "type": "uint256"
        }
      ],
      "payable": false,
      "stateMutability": "view",
      "type": "function"
    },
    {
      "constant": false,
      "inputs": [
        {
          "internalType": "address",
          "name": "to",
          "type": "address"
        },
        {
          "internalType": "uint256",
          "name": "tokens",
          "type": "uint256"
        }
      ],
      "name": "transfer",
      "outputs": [
        {
          "internalType": "bool",
          "name": "success",
          "type": "bool"
        }
      ],
      "payable": false,
      "stateMutability": "nonpayable",
      "type": "function"
    },
    {
      "constant": false,
      "inputs": [
        {
          "internalType": "address",
          "name": "spender",
          "type": "address"
        },
        {
          "internalType": "uint256",
          "name": "tokens",
          "type": "uint256"
        }
      ],
      "name": "approve",
      "outputs": [
        {
          "internalType": "bool",
          "name": "success",
          "type": "bool"
        }
      ],
      "payable": false,
      "stateMutability": "nonpayable",
      "type": "function"
    },
    {
      "constant": false,
      "inputs": [
        {
          "internalType": "address",
          "name": "from",
          "type": "address"
        },
        {
          "internalType": "address",
          "name": "to",
          "type": "address"
        },
        {
          "internalType": "uint256",
          "name": "tokens",
          "type": "uint256"
        }
      ],
      "name": "transferFrom",
      "outputs": [
        {
          "internalType": "bool",
          "name": "success",
          "type": "bool"
        }
      ],
      "payable": false,
      "stateMutability": "nonpayable",
      "type": "function"
    },
    {
      "constant": true,
      "inputs": [
        {
          "internalType": "address",
          "name": "tokenOwner",
          "type": "address"
        },
        {
          "internalType": "address",
          "name": "spender",
          "type": "address"
        }
      ],
      "name": "allowance",
      "outputs": [
        {
          "internalType": "uint256",
          "name": "remaining",
          "type": "uint256"
        }
      ],
      "payable": false,
      "stateMutability": "view",
      "type": "function"
    },
    {
      "constant": false,
      "inputs": [
        {
          "internalType": "address",
          "name": "spender",
          "type": "address"
        },
        {
          "internalType": "uint256",
          "name": "tokens",
          "type": "uint256"
        },
        {
          "internalType": "bytes",
          "name": "data",
          "type": "bytes"
        }
      ],
      "name": "approveAndCall",
      "outputs": [
        {
          "internalType": "bool",
          "name": "success",
          "type": "bool"
        }
      ],
      "payable": false,
      "stateMutability": "nonpayable",
      "type": "function"
    },
    {
      "constant": false,
      "inputs": [
        {
          "internalType": "address",
          "name": "tokenAddress",
          "type": "address"
        },
        {
          "internalType": "uint256",
          "name": "tokens",
          "type": "uint256"
        }
      ],
      "name": "transferAnyERC20Token",
      "outputs": [
        {
          "internalType": "bool",
          "name": "success",
          "type": "bool"
        }
      ],
      "payable": false,
      "stateMutability": "nonpayable",
      "type": "function"
    }
  ],
  "bytecode": "0x60806040523480156200001157600080fd5b50336000806101000a81548173ffffffffffffffffffffffffffffffffffffffff021916908373ffffffffffffffffffffffffffffffffffffffff1602179055506040518060400160405280600381526020017f564c540000000000000000000000000000000000000000000000000000000000815250600290805190602001906200009f929190620001f8565b506040518060400160405280600581526020017f5661756c7400000000000000000000000000000000000000000000000000000081525060039080519060200190620000ed929190620001f8565b506012600460006101000a81548160ff021916908360ff1602179055506a52b7d2dcc80cd2e4000000600581905550600554600660007372aea1eb9eb7b9d8f6a80e38f81a2bb50b97ccb273ffffffffffffffffffffffffffffffffffffffff1673ffffffffffffffffffffffffffffffffffffffff168152602001908152602001600020819055507372aea1eb9eb7b9d8f6a80e38f81a2bb50b97ccb273ffffffffffffffffffffffffffffffffffffffff16600073ffffffffffffffffffffffffffffffffffffffff167fddf252ad1be2c89b69c2b068fc378daa952ba7f163c4a11628f55a4df523b3ef6005546040518082815260200191505060405180910390a3620002a7565b828054600181600116156101000203166002900490600052602060002090601f016020900481019282601f106200023b57805160ff19168380011785556200026c565b828001600101855582156200026c579182015b828111156200026b5782518255916020019190600101906200024e565b5b5090506200027b91906200027f565b5090565b620002a491905b80821115620002a057600081600090555060010162000286565b5090565b90565b61175480620002b76000396000f3fe60806040526004361061011f5760003560e01c8063a293d1e8116100a0578063d4ee1d9011610064578063d4ee1d901461072c578063dc39d06d14610783578063dd62ed3e146107f6578063e6cb90131461087b578063f2fde38b146108d45761011f565b8063a293d1e8146104a4578063a9059cbb146104fd578063b5931f7c14610570578063cae9ca51146105c9578063d05c78da146106d35761011f565b80633eaaf86b116100e75780633eaaf86b1461031657806370a082311461034157806379ba5097146103a65780638da5cb5b146103bd57806395d89b41146104145761011f565b806306fdde0314610124578063095ea7b3146101b457806318160ddd1461022757806323b872dd14610252578063313ce567146102e5575b600080fd5b34801561013057600080fd5b50610139610925565b6040518080602001828103825283818151815260200191508051906020019080838360005b8381101561017957808201518184015260208101905061015e565b50505050905090810190601f1680156101a65780820380516001836020036101000a031916815260200191505b509250505060405180910390f35b3480156101c057600080fd5b5061020d600480360360408110156101d757600080fd5b81019080803573ffffffffffffffffffffffffffffffffffffffff169060200190929190803590602001909291905050506109c3565b604051808215151515815260200191505060405180910390f35b34801561023357600080fd5b5061023c610ab5565b6040518082815260200191505060405180910390f35b34801561025e57600080fd5b506102cb6004803603606081101561027557600080fd5b81019080803573ffffffffffffffffffffffffffffffffffffffff169060200190929190803573ffffffffffffffffffffffffffffffffffffffff16906020019092919080359060200190929190505050610b00565b604051808215151515815260200191505060405180910390f35b3480156102f157600080fd5b506102fa610d90565b604051808260ff1660ff16815260200191505060405180910390f35b34801561032257600080fd5b5061032b610da3565b6040518082815260200191505060405180910390f35b34801561034d57600080fd5b506103906004803603602081101561036457600080fd5b81019080803573ffffffffffffffffffffffffffffffffffffffff169060200190929190505050610da9565b6040518082815260200191505060405180910390f35b3480156103b257600080fd5b506103bb610df2565b005b3480156103c957600080fd5b506103d2610f8f565b604051808273ffffffffffffffffffffffffffffffffffffffff1673ffffffffffffffffffffffffffffffffffffffff16815260200191505060405180910390f35b34801561042057600080fd5b50610429610fb4565b6040518080602001828103825283818151815260200191508051906020019080838360005b8381101561046957808201518184015260208101905061044e565b50505050905090810190601f1680156104965780820380516001836020036101000a031916815260200191505b509250505060405180910390f35b3480156104b057600080fd5b506104e7600480360360408110156104c757600080fd5b810190808035906020019092919080359060200190929190505050611052565b6040518082815260200191505060405180910390f35b34801561050957600080fd5b506105566004803603604081101561052057600080fd5b81019080803573ffffffffffffffffffffffffffffffffffffffff1690602001909291908035906020019092919050505061106c565b604051808215151515815260200191505060405180910390f35b34801561057c57600080fd5b506105b36004803603604081101561059357600080fd5b8101908080359060200190929190803590602001909291905050506111f5565b6040518082815260200191505060405180910390f35b3480156105d557600080fd5b506106b9600480360360608110156105ec57600080fd5b81019080803573ffffffffffffffffffffffffffffffffffffffff169060200190929190803590602001909291908035906020019064010000000081111561063357600080fd5b82018360208201111561064557600080fd5b8035906020019184600183028401116401000000008311171561066757600080fd5b91908080601f016020809104026020016040519081016040528093929190818152602001838380828437600081840152601f19601f820116905080830192505050505050509192919290505050611215565b604051808215151515815260200191505060405180910390f35b3480156106df57600080fd5b50610716600480360360408110156106f657600080fd5b810190808035906020019092919080359060200190929190505050611448565b6040518082815260200191505060405180910390f35b34801561073857600080fd5b50610741611475565b604051808273ffffffffffffffffffffffffffffffffffffffff1673ffffffffffffffffffffffffffffffffffffffff16815260200191505060405180910390f35b34801561078f57600080fd5b506107dc600480360360408110156107a657600080fd5b81019080803573ffffffffffffffffffffffffffffffffffffffff1690602001909291908035906020019092919050505061149b565b604051808215151515815260200191505060405180910390f35b34801561080257600080fd5b506108656004803603604081101561081957600080fd5b81019080803573ffffffffffffffffffffffffffffffffffffffff169060200190929190803573ffffffffffffffffffffffffffffffffffffffff1690602001909291905050506115e1565b6040518082815260200191505060405180910390f35b34801561088757600080fd5b506108be6004803603604081101561089e57600080fd5b810190808035906020019092919080359060200190929190505050611668565b6040518082815260200191505060405180910390f35b3480156108e057600080fd5b50610923600480360360208110156108f757600080fd5b81019080803573ffffffffffffffffffffffffffffffffffffffff169060200190929190505050611682565b005b60038054600181600116156101000203166002900480601f0160208091040260200160405190810160405280929190818152602001828054600181600116156101000203166002900480156109bb5780601f10610990576101008083540402835291602001916109bb565b820191906000526020600020905b81548152906001019060200180831161099e57829003601f168201915b505050505081565b600081600760003373ffffffffffffffffffffffffffffffffffffffff1673ffffffffffffffffffffffffffffffffffffffff16815260200190815260200160002060008573ffffffffffffffffffffffffffffffffffffffff1673ffffffffffffffffffffffffffffffffffffffff168152602001908152602001600020819055508273ffffffffffffffffffffffffffffffffffffffff163373ffffffffffffffffffffffffffffffffffffffff167f8c5be1e5ebec7d5bd14f71427d1e84f3dd0314c0f7b2291e5b200ac8c7c3b925846040518082815260200191505060405180910390a36001905092915050565b6000600660008073ffffffffffffffffffffffffffffffffffffffff1673ffffffffffffffffffffffffffffffffffffffff1681526020019081526020016000205460055403905090565b6000610b4b600660008673ffffffffffffffffffffffffffffffffffffffff1673ffffffffffffffffffffffffffffffffffffffff1681526020019081526020016000205483611052565b600660008673ffffffffffffffffffffffffffffffffffffffff1673ffffffffffffffffffffffffffffffffffffffff16815260200190815260200160002081905550610c14600760008673ffffffffffffffffffffffffffffffffffffffff1673ffffffffffffffffffffffffffffffffffffffff16815260200190815260200160002060003373ffffffffffffffffffffffffffffffffffffffff1673ffffffffffffffffffffffffffffffffffffffff1681526020019081526020016000205483611052565b600760008673ffffffffffffffffffffffffffffffffffffffff1673ffffffffffffffffffffffffffffffffffffffff16815260200190815260200160002060003373ffffffffffffffffffffffffffffffffffffffff1673ffffffffffffffffffffffffffffffffffffffff16815260200190815260200160002081905550610cdd600660008573ffffffffffffffffffffffffffffffffffffffff1673ffffffffffffffffffffffffffffffffffffffff1681526020019081526020016000205483611668565b600660008573ffffffffffffffffffffffffffffffffffffffff1673ffffffffffffffffffffffffffffffffffffffff168152602001908152602001600020819055508273ffffffffffffffffffffffffffffffffffffffff168473ffffffffffffffffffffffffffffffffffffffff167fddf252ad1be2c89b69c2b068fc378daa952ba7f163c4a11628f55a4df523b3ef846040518082815260200191505060405180910390a3600190509392505050565b600460009054906101000a900460ff1681565b60055481565b6000600660008373ffffffffffffffffffffffffffffffffffffffff1673ffffffffffffffffffffffffffffffffffffffff168152602001908152602001600020549050919050565b600160009054906101000a900473ffffffffffffffffffffffffffffffffffffffff1673ffffffffffffffffffffffffffffffffffffffff163373ffffffffffffffffffffffffffffffffffffffff1614610e4c57600080fd5b600160009054906101000a900473ffffffffffffffffffffffffffffffffffffffff1673ffffffffffffffffffffffffffffffffffffffff166000809054906101000a900473ffffffffffffffffffffffffffffffffffffffff1673ffffffffffffffffffffffffffffffffffffffff167f8be0079c531659141344cd1fd0a4f28419497f9722a3daafe3b4186f6b6457e060405160405180910390a3600160009054906101000a900473ffffffffffffffffffffffffffffffffffffffff166000806101000a81548173ffffffffffffffffffffffffffffffffffffffff021916908373ffffffffffffffffffffffffffffffffffffffff1602179055506000600160006101000a81548173ffffffffffffffffffffffffffffffffffffffff021916908373ffffffffffffffffffffffffffffffffffffffff160217905550565b6000809054906101000a900473ffffffffffffffffffffffffffffffffffffffff1681565b60028054600181600116156101000203166002900480601f01602080910402602001604051908101604052809291908181526020018280546001816001161561010002031660029004801561104a5780601f1061101f5761010080835404028352916020019161104a565b820191906000526020600020905b81548152906001019060200180831161102d57829003601f168201915b505050505081565b60008282111561106157600080fd5b818303905092915050565b60006110b7600660003373ffffffffffffffffffffffffffffffffffffffff1673ffffffffffffffffffffffffffffffffffffffff1681526020019081526020016000205483611052565b600660003373ffffffffffffffffffffffffffffffffffffffff1673ffffffffffffffffffffffffffffffffffffffff16815260200190815260200160002081905550611143600660008573ffffffffffffffffffffffffffffffffffffffff1673ffffffffffffffffffffffffffffffffffffffff1681526020019081526020016000205483611668565b600660008573ffffffffffffffffffffffffffffffffffffffff1673ffffffffffffffffffffffffffffffffffffffff168152602001908152602001600020819055508273ffffffffffffffffffffffffffffffffffffffff163373ffffffffffffffffffffffffffffffffffffffff167fddf252ad1be2c89b69c2b068fc378daa952ba7f163c4a11628f55a4df523b3ef846040518082815260200191505060405180910390a36001905092915050565b600080821161120357600080fd5b81838161120c57fe5b04905092915050565b600082600760003373ffffffffffffffffffffffffffffffffffffffff1673ffffffffffffffffffffffffffffffffffffffff16815260200190815260200160002060008673ffffffffffffffffffffffffffffffffffffffff1673ffffffffffffffffffffffffffffffffffffffff168152602001908152602001600020819055508373ffffffffffffffffffffffffffffffffffffffff163373ffffffffffffffffffffffffffffffffffffffff167f8c5be1e5ebec7d5bd14f71427d1e84f3dd0314c0f7b2291e5b200ac8c7c3b925856040518082815260200191505060405180910390a38373ffffffffffffffffffffffffffffffffffffffff16638f4ffcb1338587866040518563ffffffff1660e01b8152600401808573ffffffffffffffffffffffffffffffffffffffff1673ffffffffffffffffffffffffffffffffffffffff1681526020018481526020018373ffffffffffffffffffffffffffffffffffffffff1673ffffffffffffffffffffffffffffffffffffffff16815260200180602001828103825283818151815260200191508051906020019080838360005b838110156113d65780820151818401526020810190506113bb565b50505050905090810190601f1680156114035780820380516001836020036101000a031916815260200191505b5095505050505050600060405180830381600087803b15801561142557600080fd5b505af1158015611439573d6000803e3d6000fd5b50505050600190509392505050565b60008183029050600083148061146657508183828161146357fe5b04145b61146f57600080fd5b92915050565b600160009054906101000a900473ffffffffffffffffffffffffffffffffffffffff1681565b60008060009054906101000a900473ffffffffffffffffffffffffffffffffffffffff1673ffffffffffffffffffffffffffffffffffffffff163373ffffffffffffffffffffffffffffffffffffffff16146114f657600080fd5b8273ffffffffffffffffffffffffffffffffffffffff1663a9059cbb6000809054906101000a900473ffffffffffffffffffffffffffffffffffffffff16846040518363ffffffff1660e01b8152600401808373ffffffffffffffffffffffffffffffffffffffff1673ffffffffffffffffffffffffffffffffffffffff16815260200182815260200192505050602060405180830381600087803b15801561159e57600080fd5b505af11580156115b2573d6000803e3d6000fd5b505050506040513d60208110156115c857600080fd5b8101908080519060200190929190505050905092915050565b6000600760008473ffffffffffffffffffffffffffffffffffffffff1673ffffffffffffffffffffffffffffffffffffffff16815260200190815260200160002060008373ffffffffffffffffffffffffffffffffffffffff1673ffffffffffffffffffffffffffffffffffffffff16815260200190815260200160002054905092915050565b600081830190508281101561167c57600080fd5b92915050565b6000809054906101000a900473ffffffffffffffffffffffffffffffffffffffff1673ffffffffffffffffffffffffffffffffffffffff163373ffffffffffffffffffffffffffffffffffffffff16146116db57600080fd5b80600160006101000a81548173ffffffffffffffffffffffffffffffffffffffff021916908373ffffffffffffffffffffffffffffffffffffffff1602179055505056fea265627a7a72315820b1c6895f3db05b62a464d184d64330a5f82fe019fa25c53bbd7d060563d4468f64736f6c63430005100032",
  "source": "// SPDX-License-Identifier: MIT\npragma solidity >=0.4.21 <0.7.0;\n\n// ----------------------------------------------------------------------------\n// 'Vault' token contract\n//\n// Deployed to : 0x72aEA1eB9eB7B9D8f6A80e38F81A2bb50B97CCB2\n// Symbol      : VLT\n// Name        : Vault\n// Total supply: 100000000\n// Decimals    : 18\n//\n// Enjoy.\n//\n// (c) by Moritz Neto with BokkyPooBah / Bok Consulting Pty Ltd Au 2017. The MIT Licence.\n// ----------------------------------------------------------------------------\n\n\n// ----------------------------------------------------------------------------\n// Safe maths\n// ----------------------------------------------------------------------------\ncontract SafeMath {\n    function safeAdd(uint a, uint b) public pure returns (uint c) {\n        c = a + b;\n        require(c >= a);\n    }\n    function safeSub(uint a, uint b) public pure returns (uint c) {\n        require(b <= a);\n        c = a - b;\n    }\n    function safeMul(uint a, uint b) public pure returns (uint c) {\n        c = a * b;\n        require(a == 0 || c / a == b);\n    }\n    function safeDiv(uint a, uint b) public pure returns (uint c) {\n        require(b > 0);\n        c = a / b;\n    }\n}\n\n\n// ----------------------------------------------------------------------------\n// ERC Token Standard #20 Interface\n// https://github.com/ethereum/EIPs/blob/master/EIPS/eip-20-token-standard.md\n// ----------------------------------------------------------------------------\ncontract ERC20Interface {\n    function totalSupply() public view returns (uint);\n    function balanceOf(address tokenOwner) public view returns (uint balance);\n    function allowance(address tokenOwner, address spender) public view returns (uint remaining);\n    function transfer(address to, uint tokens) public returns (bool success);\n    function approve(address spender, uint tokens) public returns (bool success);\n    function transferFrom(address from, address to, uint tokens) public returns (bool success);\n\n    event Transfer(address indexed from, address indexed to, uint tokens);\n    event Approval(address indexed tokenOwner, address indexed spender, uint tokens);\n}\n\n\n// ----------------------------------------------------------------------------\n// Contract function to receive approval and execute function in one call\n//\n// Borrowed from MiniMeToken\n// ----------------------------------------------------------------------------\ncontract ApproveAndCallFallBack {\n    function receiveApproval(address from, uint256 tokens, address token, bytes memory data) public;\n}\n\n\n// ----------------------------------------------------------------------------\n// Owned contract\n// ----------------------------------------------------------------------------\ncontract Owned {\n    address public owner;\n    address public newOwner;\n\n    event OwnershipTransferred(address indexed _from, address indexed _to);\n\n    constructor() public {\n        owner = msg.sender;\n    }\n\n    modifier onlyOwner {\n        require(msg.sender == owner);\n        _;\n    }\n\n    function transferOwnership(address _newOwner) public onlyOwner {\n        newOwner = _newOwner;\n    }\n    function acceptOwnership() public {\n        require(msg.sender == newOwner);\n        emit OwnershipTransferred(owner, newOwner);\n        owner = newOwner;\n        newOwner = address(0);\n    }\n}\n\n\n// ----------------------------------------------------------------------------\n// ERC20 Token, with the addition of symbol, name and decimals and assisted\n// token transfers\n// ----------------------------------------------------------------------------\ncontract VaultCoin is ERC20Interface, Owned, SafeMath {\n    string public symbol;\n    string public  name;\n    uint8 public decimals;\n    uint public _totalSupply;\n\n    mapping(address => uint) balances;\n    mapping(address => mapping(address => uint)) allowed;\n\n\n    // ------------------------------------------------------------------------\n    // Constructor\n    // ------------------------------------------------------------------------\n    constructor() public {\n        symbol = \"VLT\";\n        name = \"Vault\";\n        decimals = 18;\n        _totalSupply = 100000000000000000000000000;\n        balances[0x72aEA1eB9eB7B9D8f6A80e38F81A2bb50B97CCB2] = _totalSupply;\n        emit Transfer(address(0), 0x72aEA1eB9eB7B9D8f6A80e38F81A2bb50B97CCB2, _totalSupply);\n    }\n\n\n    // ------------------------------------------------------------------------\n    // Total supply\n    // ------------------------------------------------------------------------\n    function totalSupply() public view returns (uint) {\n        return _totalSupply  - balances[address(0)];\n    }\n\n\n    // ------------------------------------------------------------------------\n    // Get the token balance for account tokenOwner\n    // ------------------------------------------------------------------------\n    function balanceOf(address tokenOwner) public view returns (uint balance) {\n        return balances[tokenOwner];\n    }\n\n\n    // ------------------------------------------------------------------------\n    // Transfer the balance from token owner's account to to account\n    // - Owner's account must have sufficient balance to transfer\n    // - 0 value transfers are allowed\n    // ------------------------------------------------------------------------\n    function transfer(address to, uint tokens) public returns (bool success) {\n        balances[msg.sender] = safeSub(balances[msg.sender], tokens);\n        balances[to] = safeAdd(balances[to], tokens);\n        emit Transfer(msg.sender, to, tokens);\n        return true;\n    }\n\n\n    // ------------------------------------------------------------------------\n    // Token owner can approve for spender to transferFrom(...) tokens\n    // from the token owner's account\n    //\n    // https://github.com/ethereum/EIPs/blob/master/EIPS/eip-20-token-standard.md\n    // recommends that there are no checks for the approval double-spend attack\n    // as this should be implemented in user interfaces \n    // ------------------------------------------------------------------------\n    function approve(address spender, uint tokens) public returns (bool success) {\n        allowed[msg.sender][spender] = tokens;\n        emit Approval(msg.sender, spender, tokens);\n        return true;\n    }\n\n\n    // ------------------------------------------------------------------------\n    // Transfer tokens from the from account to the to account\n    // \n    // The calling account must already have sufficient tokens approve(...)-d\n    // for spending from the from account and\n    // - From account must have sufficient balance to transfer\n    // - Spender must have sufficient allowance to transfer\n    // - 0 value transfers are allowed\n    // ------------------------------------------------------------------------\n    function transferFrom(address from, address to, uint tokens) public returns (bool success) {\n        balances[from] = safeSub(balances[from], tokens);\n        allowed[from][msg.sender] = safeSub(allowed[from][msg.sender], tokens);\n        balances[to] = safeAdd(balances[to], tokens);\n        emit Transfer(from, to, tokens);\n        return true;\n    }\n\n\n    // ------------------------------------------------------------------------\n    // Returns the amount of tokens approved by the owner that can be\n    // transferred to the spender's account\n    // ------------------------------------------------------------------------\n    function allowance(address tokenOwner, address spender) public view returns (uint remaining) {\n        return allowed[tokenOwner][spender];\n    }\n\n\n    // ------------------------------------------------------------------------\n    // Token owner can approve for spender to transferFrom(...) tokens\n    // from the token owner's account. The spender contract function\n    // receiveApproval(...) is then executed\n    // ------------------------------------------------------------------------\n    function approveAndCall(address spender, uint tokens, bytes memory data) public returns (bool success) {\n        allowed[msg.sender][spender] = tokens;\n        emit Approval(msg.sender, spender, tokens);\n        ApproveAndCallFallBack(spender).receiveApproval(msg.sender, tokens, spender, data);\n        return true;\n    }\n\n\n    // ------------------------------------------------------------------------\n    // Don't accept ETH\n    // ------------------------------------------------------------------------\n    function ()  external payable  {\n        revert();\n    }\n\n\n    // ------------------------------------------------------------------------\n    // Owner can transfer out any accidentally sent ERC20 tokens\n    // ------------------------------------------------------------------------\n    function transferAnyERC20Token(address tokenAddress, uint tokens) public onlyOwner returns (bool success) {\n        return ERC20Interface(tokenAddress).transfer(owner, tokens);\n    }\n}",
  "sourcePath": "/home/youssef/Bureau/PIM/Cryptospace-Backend (copie)/contracts/VaultCoin.sol",
  "compiler": {
    "name": "solc",
    "version": "0.5.16+commit.9c3226ce.Emscripten.clang"
  },
  "schemaVersion": "3.3.4",
  "updatedAt": "2021-06-05T12:30:34.517Z",
  "networkType": "ethereum",
  "devdoc": {
    "methods": {}
  },
  "userdoc": {
    "methods": {}
  }
}